{
  "contractName": "Possession",
  "abi": [
    {
      "constant": false,
      "inputs": [
        {
          "name": "posId",
          "type": "uint256"
        }
      ],
      "name": "buy",
      "outputs": [
        {
          "name": "",
          "type": "uint256"
        }
      ],
      "payable": false,
      "stateMutability": "nonpayable",
      "type": "function"
    },
    {
      "constant": true,
      "inputs": [
        {
          "name": "",
          "type": "uint256"
        }
      ],
      "name": "buyers",
      "outputs": [
        {
          "name": "",
          "type": "address"
        }
      ],
      "payable": false,
      "stateMutability": "view",
      "type": "function"
    },
    {
      "constant": true,
      "inputs": [],
      "name": "getBuyers",
      "outputs": [
        {
          "name": "",
          "type": "address[10]"
        }
      ],
      "payable": false,
      "stateMutability": "view",
      "type": "function"
    }
  ],
  "bytecode": "0x6060604052341561000f57600080fd5b6102db8061001e6000396000f300606060405260043610610057576000357c0100000000000000000000000000000000000000000000000000000000900463ffffffff168063d96a094a1461005c578063f2aa821814610093578063f64bfaba146100f6575b600080fd5b341561006757600080fd5b61007d6004808035906020019091905050610147565b6040518082815260200191505060405180910390f35b341561009e57600080fd5b6100b460048080359060200190919050506101ba565b604051808273ffffffffffffffffffffffffffffffffffffffff1673ffffffffffffffffffffffffffffffffffffffff16815260200191505060405180910390f35b341561010157600080fd5b6101096101ef565b6040518082600a60200280838360005b83811015610134578082015181840152602081019050610119565b5050505090500191505060405180910390f35b600080821180156101585750600a82105b151561016357600080fd5b33600083600a8110151561017357fe5b0160006101000a81548173ffffffffffffffffffffffffffffffffffffffff021916908373ffffffffffffffffffffffffffffffffffffffff160217905550819050919050565b600081600a811015156101c957fe5b016000915054906101000a900473ffffffffffffffffffffffffffffffffffffffff1681565b6101f7610270565b6000600a806020026040519081016040528092919082600a8015610266576020028201915b8160009054906101000a900473ffffffffffffffffffffffffffffffffffffffff1673ffffffffffffffffffffffffffffffffffffffff168152602001906001019080831161021c575b5050505050905090565b61014060405190810160405280600a905b600073ffffffffffffffffffffffffffffffffffffffff1681526020019060019003908161028157905050905600a165627a7a7230582069a33c177b6224a2489d7a7692cd214f6faa93e584d1a66575995ac70918743c0029",
  "source": "pragma solidity ^0.4.2;\r\n\r\ncontract Possession {\r\n    address[10] public buyers;\r\n\r\n    function buy(uint posId) public returns (uint) {\r\n        require(posId > 0 && posId < 10);\r\n        buyers[posId] = msg.sender;\r\n        return posId;\r\n    }\r\n\r\n    function getBuyers() public view returns (address[10]) {\r\n        return buyers;\r\n    }\r\n}",
  "sourcePath": "C:\\Users\\Jic\\Documents\\react-native-simplest-smart-contract-ethereum\\react-native-ethereum\\contracts\\Possession.sol",
  "compiler": {
    "name": "solc",
    "version": "0.4.18+commit.9cf6e910.Emscripten.clang"
  },
  "schemaVersion": "1.0.1",
  "updatedAt": "2018-01-15T09:37:41.257Z"
}